:100000000C9463000C948B000C948B000C948B006C
:100010000C948B000C948B000C948B000C948B0034
:100020000C948B000C948B000C948B000C948B0024
:100030000C948B000C948B000C948B000C948B0014
:100040000C94E9060C948B000C944F050C94290534
:100050000C948B000C948B000C948B000C948B00F4
:100060000C948B000C948B000000000023002600F1
:10007000290004040404040404040202020202022B
:10008000030303030303010204081020408001025C
:1000900004081020010204081020000000080002DB
:1000A0000100000304070000000000000000000041
:1000B0000000240027002A0000000000250028007E
:1000C0002B00990A6F0D11241FBECFEFD8E0DEBFC1
:1000D000CDBF24E0A6E6B2E001C01D92AA35B2076A
:1000E000E1F712E0A0E0B1E0ECE1F4E202C005903B
:1000F0000D92A636B107D9F710E0C2E6D0E004C0F1
:100100002197FE010E94E60FC136D107C9F70E9470
:10011000180B0C9401120C940000CF92DF92EF9216
:10012000FF920F931F93CF93DF936C017A018B01A2
:10013000C0E0D0E0CE15DF0589F0D8016D918D01CA
:10014000D601ED91FC910190F081E02DC601099559
:10015000892B11F47E0102C02196ECCFC701DF91FB
:10016000CF911F910F91FF90EF90DF90CF90089566
:10017000089580E090E008958EE892E00E94B20534
:1001800021E0892B09F420E0822F08950E94E311D9
:10019000EF92FF920F931F93CF93DF93EC0181E0D7
:1001A000888F9B8D8C8D981305C0E889F989808193
:1001B00085FD24C0F62E0B8D10E00F5F1F4F0F73CF
:1001C0001127E02E8C8DE8120CC00FB607FCFACF79
:1001D000E889F989808185FFF5CFCE010E94ED0580
:1001E000F1CF8B8DFE01E80FF11DE35AFF4FF08236
:1001F0000B8FEA89FB898081806207C0EE89FF89C5
:100200006083E889F98980818064808381E090E05F
:10021000DF91CF911F910F91FF90EF900895CF93B1
:10022000DF93EC01888D8823C9F0EA89FB898081FE
:1002300085FD05C0A889B9898C9186FD0FC00FB6D0
:1002400007FCF5CF808185FFF2CFA889B9898C9111
:1002500085FFEDCFCE010E94ED05E7CFDF91CF9175
:100260000895CF93DF93009779F0FC01019000206F
:10027000E9F73197AF01481B590BBC018EE892E0BA
:100280000E948D00EC0102C0C0E0D0E042E050E0EE
:100290006FEB71E08EE892E00E948D008C0F9D1F45
:1002A000DF91CF9108953F924F925F926F927F922C
:1002B0008F929F92AF92BF92CF92DF92EF92FF9276
:1002C0000F931F93CF93DF9300D0CDB7DEB76DB6FA
:1002D0007EB680918602909187029A838983E0900E
:1002E000DD03F090DE038091DC03882309F41CC158
:1002F0006091840270918502E616F7060CF014C135
:10030000CDB6DEB6CB018E199F09C8971CF46E19C5
:1003100050E002C051E067E3862F90E09C012C5F23
:100320003F4FFC013596ADB7BEB7AE1BBF0B0FB646
:10033000F894BEBF0FBEADBF0DB71EB70F5F1F4F06
:10034000709183024FEF11964C9340912C03511101
:1003500003C0F801418304C04062D80111964C9358
:10036000772321F0F8014181406441834FEFD801A8
:1003700012964C931297AC014F5F5F4F440F551F7D
:10038000416813964C93A8014C5F5F4FFA017E2F92
:10039000741B761758F4A0918602B09187027D9164
:1003A0007193B0938702A0938602F1CF8E0D9F1DAB
:1003B0009093DE038093DD0393E0960F512C80E051
:1003C000F801E80FF11D408154268F5F9817C0F7A0
:1003D000F801E20FF31F508285E0482E460E0E947E
:1003E000DD068090D8039090D903A090DA03B090F6
:1003F000DB03BAE08B0E911CA11CB11C68157905BA
:100400008A059B0560F30E94DD064B015C0160914B
:100410002D0370912E0380912F039091300320E4DF
:100420003FE140E050E00E949D0FA42DB0E00E940B
:10043000980EDC01CB018053984FAF4FBF4F880D12
:10044000991DAA1DBB1D8093350390933603A0937D
:100450003703B093380361E08091B4030E943706FC
:10046000302E4801882D83198415F0F40E94DD0692
:1004700000913503109136032091370330913803F2
:100480006017710782079307F0F58091DF03909161
:10049000E003F40161914F01DC01ED91FC910190C9
:1004A000F081E02D0995DECF8091DF039091E0038C
:1004B000DC01ED91FC910680F781E02D099560E06B
:1004C0008091B4030E943706809184029091850246
:1004D00001972091DD033091DE032817390724F4BA
:1004E00081E08093820206C0109282021092DE03A5
:1004F0001092DD031092DC030FB6F894DEBE0FBE3F
:10050000CDBE852D12C0E981FA81F0938702E09378
:100510008602F092DE03E092DD031092DC030FB658
:10052000F894DEBE0FBECDBE80E00FB6F8947EBE5E
:100530000FBE6DBE0F900F90DF91CF911F910F9165
:10054000FF90EF90DF90CF90BF90AF909F908F90F3
:100550007F906F905F904F903F90089590938702A7
:100560008093860270938502609384021092DE036A
:100570001092DD0381E080938202109283020C943A
:100580005301CF93DF93EEE9F0E08491EAE8F0E0E5
:10059000D491E6E7F0E0C491CC2391F081110E9460
:1005A0000E06EC2FF0E0EE0FFF1FE859FF4FA5916C
:1005B000B491EC91ED2381E090E021F480E002C061
:1005C00080E090E0DF91CF9108952F923F924F927B
:1005D0005F926F927F928F929F92AF92BF92CF92D3
:1005E000DF92EF92FF920F931F93CF93DF93CDB7DC
:1005F000DEB7CDB6DEB68091310390913203A09183
:100600003303B0913403892B8A2B8B2BE9F00E94A2
:10061000DD060091310310913203209133033091B4
:100620003403061717072807390770F48091DF0392
:100630009091E003DC01ED91FC910084F185E02DC7
:100640000995892B09F4E3C024E0622E30E4832E5F
:100650003FE1932EA12CB12CFF24F39443E0742EA0
:1006600052E0E52E8091DF039091E003DC01ED91F3
:10067000FC910084F185E02D0995892B09F47EC158
:100680008091DF039091E003DC01ED91FC91028405
:10069000F385E02D0995E82F20912B03211107C048
:1006A0008F3F01F7F0922B0380933903DBCF243087
:1006B00008F443C0622F70E04091750350E04C5F36
:1006C0005F4F461757070CF451C0FB01E55DFC4F27
:1006D00086872F5F20932B038091DF039091E003A7
:1006E000DC01ED91FC910084F185E02D09954091AC
:1006F0002B0320917503892B09F498C0642F70E0B7
:10070000822F90E00496861797070CF48FC0809193
:10071000DF039091E003DC01ED91FC910284F3850D
:10072000E02D099590912B03E92FF0E0E55DFC4F5A
:1007300086879F5F90932B03CFCF2130A9F4209120
:100740002C0330E0AC014F71552742175307B1F429
:1007500087FF14C085FB992790F99093DC03E09202
:100760002B0380933A037ECF223081F0233009F0AF
:1007700079CF9C0121783327232B79F4EF3F19F4AB
:10078000F0922B036FCF10922B036CCF8F3FD9F7D2
:1007900070922B0380933B0365CF9C012E77332708
:1007A00035952795293331054CF760922B038093BB
:1007B0003C032150209375030E94DD061B012C0190
:1007C0000091750310E00F5F1F4F60912D03709132
:1007D0002E0380912F0390913003A50194010E9474
:1007E0009D0FD8010E94BC0FDC01CB018053984FB4
:1007F000AF4FBF4F820D931DA41DB51D80933103D4
:1008000090933203A0933303B09334032BCF109211
:100810002B03109231031092320310923303109283
:10082000340310927503109276030ECF50E0822F9E
:1008300090E005964817590709F014CF0E94DD068D
:100840006093D8037093D9038093DA039093DB030A
:10085000E0912B03F0E0E65DFC4F368530937603A4
:1008600016862091750344E0420F90E080E0E82F67
:10087000F0E0E55DFC4F568595278F5F4817B8F788
:1008800093136DC010923103109232031092330310
:100890001092340310922B0380913A0386FF2DC0EF
:1008A00085FF0DC08091DC03882309F4DBCE8091A5
:1008B0008202882309F4D6CE0E945301D3CE8091C0
:1008C0008302882309F4CECE90913D03809181026A
:1008D0009813C8CEF0928002109281021092830287
:1008E0001092750310927603E091E103F091E20318
:1008F000309709F4B7CE0995B5CE0DB71EB7622F64
:1009000070E08DB79EB7861B970B0FB6F8949EBF0D
:100910000FBE8DBF0196ADE3B3E0482FFC013E2F23
:10092000341B321718F43D913193F9CFE091E30372
:10093000F091E403099510922B0310923103109269
:100940003203109233031092340310927503109205
:1009500076030FB6F8941EBF0FBE0DBF83CE109264
:100960002B03109231031092320310923303109232
:100970003403109275031092760374CE0FB6F89478
:10098000DEBE0FBECDBEDF91CF911F910F91FF90C4
:10099000EF90DF90CF90BF90AF909F908F907F901F
:1009A0006F905F904F903F902F90089583E48093D5
:1009B0007C0080917A00806480937A0080917A0034
:1009C00086FDFCCF809178002091790090E0922BF9
:1009D0000895EF92FF920F931F93CF93DF93EC0153
:1009E0007B018A0188819981009729F02A813B81C6
:1009F00024173507F8F4B8016F5F7F4F0E94191173
:100A0000009759F0998388831B830A832C813D8149
:100A1000232B81F4FC0110820DC0888199810097FD
:100A200011F00E948110198218821D821C821B8283
:100A30001A8207C01D830C83B701888199810E94A7
:100A4000FA11CE01DF91CF911F910F91FF90EF909E
:100A500008951F920F920FB60F9211242F933F9378
:100A60004F935F936F937F938F939F93AF93BF93B6
:100A7000EF93FF938EE892E00E94ED05FF91EF91D6
:100A8000BF91AF919F918F917F916F915F914F91A6
:100A90003F912F910F900FBE0F901F9018951F92AE
:100AA0000F920FB60F9211242F938F939F93EF9372
:100AB000FF93E0919E02F0919F028081E091A40259
:100AC000F091A50282FD12C090818091A7028F5FF4
:100AD0008F732091A802821751F0E091A702F0E0F5
:100AE000E257FD4F958F8093A70201C08081FF914F
:100AF000EF919F918F912F910F900FBE0F901F90AC
:100B00001895FC01538D448D252F30E0842F90E003
:100B1000821B930B541710F0CF96089501970895F8
:100B2000FC01918D828D981761F0828DDF01A80FF5
:100B3000B11D5D968C91928D9F5F9F73928F90E017
:100B400008958FEF9FEF0895FC01918D828D981786
:100B500031F0828DE80FF11D858D90E008958FEFC3
:100B60009FEF0895FC01918D228D892F90E0805C8C
:100B70009F4F821B91098F739927089580E090E021
:100B8000892B29F00E94BC0081110C94000008956B
:100B90003FB7F8948091520490915304A09154046B
:100BA000B091550426B5A89B05C02F3F19F00196BA
:100BB000A11DB11D3FBFBA2FA92F982F8827820FE3
:100BC000911DA11DB11DBC01CD0142E0660F771F33
:100BD000881F991F4A95D1F70895FC01848DDF0184
:100BE000A80FB11DA35ABF4F2C91848D90E00196A0
:100BF0008F739927848FA689B7892C93A089B1898F
:100C00008C9180648C93938D848D981306C0028898
:100C1000F389E02D80818F7D80830895833081F07A
:100C200028F4813099F08230A1F008958730A9F03E
:100C30008830B9F08430D1F4809180008F7D03C07A
:100C4000809180008F7780938000089584B58F779E
:100C500002C084B58F7D84BD08958091B0008F77E8
:100C600003C08091B0008F7D8093B00008951F93E2
:100C7000CF93DF93282F30E0F901E656FF4F8491A0
:100C8000F901EA57FF4FD491F901EE58FF4FC49193
:100C9000CC23C9F0162F81110E940E06EC2FF0E034
:100CA000EE0FFF1FE854FF4FA591B4918FB7F89452
:100CB000111105C09C91ED2FE095E92302C0EC9144
:100CC000ED2BEC938FBFDF91CF911F910895CF93C0
:100CD000DF9390E0FC01EA57FF4F2491FC01EE58AE
:100CE000FF4F8491882361F190E0880F991FFC01E8
:100CF000E255FF4FC591D491FC01E854FF4FA591F7
:100D0000B491611109C09FB7F8948881209582231E
:100D10008883EC912E230BC0623061F49FB7F89466
:100D20003881822F809583238883EC912E2B2C93FE
:100D30009FBF06C08FB7F894E8812E2B28838FBF02
:100D4000DF91CF9108958F929F92AF92BF92CF92F1
:100D5000DF92EF92FF926B017C010E94C8054B016C
:100D60005C01C114D104E104F104F1F00E94C80552
:100D7000DC01CB0188199909AA09BB09883E934077
:100D8000A105B10570F321E0C21AD108E108F1080C
:100D900088EE880E83E0981EA11CB11CC114D104FA
:100DA000E104F10419F7DDCFFF90EF90DF90CF90D1
:100DB000BF90AF909F908F9008952FB7F894609157
:100DC0004E0470914F0480915004909151042FBFB4
:100DD00008951F920F920FB60F9211242F933F93F5
:100DE0008F939F93AF93BF9380914E0490914F0444
:100DF000A0915004B091510430914D0423E0230F91
:100E00002D3720F40196A11DB11D05C026E8230F42
:100E10000296A11DB11D20934D0480934E04909322
:100E20004F04A0935004B0935104809152049091C8
:100E30005304A0915404B09155040196A11DB11D15
:100E40008093520490935304A0935404B093550498
:100E5000BF91AF919F918F913F912F910F900FBEB6
:100E60000F901F9018958F929F92AF92BF92CF9242
:100E7000DF92EF92FF920F931F93AC019091F203D8
:100E8000E92FF0E0EE0FFF1FE851FC4FC080D1804A
:100E90000D2C000CEE08FF080091F3031091F403F1
:100EA0002091F5033091F6030C191D092E093F0915
:100EB00051834083052E000C660B770B48015901C6
:100EC000840E951EA61EB71E8092F3039092F40323
:100ED000A092F503B092F60381E0890F65E00E94CD
:100EE000910F9093F2038091E703853018F48F5FA0
:100EF0008093E703C090E7032C2D30E040E050E002
:100F0000C501B4010E949D0FCA01B9011F910F9143
:100F1000FF90EF90DF90CF90BF90AF909F908F9019
:100F2000089560916602709167028091E503909147
:100F3000E60301969093E6038093E50320918802EF
:100F4000309189022115310519F0281739071CF451
:100F50008EE192E00BC02091000130910101CB01A4
:100F600040962817390724F482EC91E00C94310163
:100F700040E150E080E792E00C94800E3F924F9267
:100F80005F926F927F928F929F92AF92BF92CF9219
:100F9000DF92EF92FF920F931F93CF93DF9349E07D
:100FA00050E060E472E088EB93E00E94E9040E9464
:100FB000DD066B017C0181E080934C0400E010E0D1
:100FC000CFEFD3E0312C88248A9483E0982EAA2492
:100FD000A394B12C80914C04882309F4CFC00E94C3
:100FE000DD06DC01CB018C199D09AE09BF09803AF1
:100FF0009648A140B10508F0C1C00E94C102019706
:1010000009F0BCC06AE070E080E090E00E94A306B6
:101010000E94D60490936F0280936E0220917F020B
:10102000222339F09401281B390B30936F0220934F
:101030006E0280916E0290916F020E94330770934E
:101040006D0260936C0231100DC00E94DD06DC0160
:10105000CB018C199D09AE09BF09813D9740A105BF
:10106000B10570F080916C0290916D02081719071C
:1010700008F48C018C179D0708F4EC013324339499
:1010800060917D0270E080E090E00E94750D20E0AC
:1010900030E048EC52E40E94E90E2B013C01B8011B
:1010A0006C1B7D0B072E000C880B990B0E94770D93
:1010B0009B01AC01C301B2010E94B20D20E030E0FF
:1010C00040E05FE30E94B20D0E945B0F9E01260F7D
:1010D000371F3093750220937402C801861B970B4B
:1010E00090937702809376020E94DD064090F90388
:1010F0005090FA036090FB037090FC039B01AC01DD
:10110000241935094609570929013A0138EC4316D3
:10111000510461047104E0F06093F9037093FA03E1
:101120008093FB039093FC038091F7039091F80365
:10113000892B29F4B092F803A092F70304C010920F
:10114000F8031092F7036091F7038DE00E943706D1
:101150008EE892E00E94B205892B69F480913103F8
:1011600090913203A0913303B0913403892B8A2BE1
:101170008B2B09F42FCF0E94E5022CCF42E050E0E8
:101180006CEB71E088EB93E00E94E9040E94910708
:1011900068EE73E080E090E00E94A30660E08DE0DE
:1011A000DF91CF911F910F91FF90EF90DF90CF9043
:1011B000BF90AF909F908F907F906F905F904F9077
:1011C0003F900C943706CF92DF92EF92FF92FC0192
:1011D0008081282F30E035952795359527958370A8
:1011E0002830310509F059C0813009F09DC1909136
:1011F0006A0220916B02909306042093070431E267
:101200003093FD032093FE039093FF032DEF33E013
:10121000309387022093860223E030E030938502EA
:101220002093840280938202809383021092800232
:101230000E945301809381020E94DD066B017C01B4
:101240000E94DD0620918002211154C1DC01CB01F6
:101250008C199D09AE09BF09813D9740A105B105D3
:10126000C8F01092800210928102109283021092B4
:101270002B03109231031092320310923303109219
:10128000340310927503109276034BE150E06AE448
:1012900072E042C10E94E502D3CF922F2130310586
:1012A00029F461E970E082E091E035C0223019F460
:1012B0000C94000039C12350223008F435C19A3013
:1012C00059F4813031F4FF90EF90DF90CF900C947F
:1012D000BE0710924C0428C19B3019F58091B803C9
:1012E0009091B903ECE0F4E04091BC035091BD0350
:1012F00060E070E06417750761F0009729F0DC0189
:10130000A60FB71F2C9101C020E021936F5F7F4F84
:10131000F1CF8CE094E0FF90EF90DF90CF900C94B1
:10132000AE02963009F082C0823009F047C08AE1EF
:10133000809308048181809309048181803129F49C
:1013400080916C0290916D0230C0811105C0809136
:1013500068029091690229C0813029F48091740259
:101360009091750222C0823029F48091760290918A
:1013700077021BC0833029F4809178029091790222
:1013800014C0843029F480917A0290917B020DC0C0
:10139000893029F480916A0290916B0206C08A30EC
:1013A00041F4809106049091070490930A0480937D
:1013B0000B0464E070E088E094E0ADCF8130E1F4AC
:1013C00089E18093030481818093040481818530C5
:1013D00019F480917C0209C0863019F480917D0255
:1013E00004C0873021F480917E028093050463E07D
:1013F00070E083E094E08FCF811196C088E1809304
:1014000000048181809301048181883051F48091AE
:101410007F02882321F081E08093020402C01092B1
:10142000020463E070E080E094E075CF973009F04B
:1014300050C0823071F5828190E0982F88272381F7
:10144000820F911D2181203109F44EC0211105C068
:10145000909369028093680247C0213029F49093E9
:1014600075028093740240C0223029F49093770271
:101470008093760239C0233029F4909379028093C7
:10148000780232C0243081F590937B0280937A02F7
:101490002BC0813089F482819181953019F4809339
:1014A0007C0222C0963019F480937D021DC09730D3
:1014B000D9F480937E0218C0811116C09281818177
:1014C000883091F481E0911101C080E080937F0227
:1014D0000BC0993049F580E1EAE9F1E0A0E7B2E01C
:1014E00001900D928A95E1F7FF90EF90DF90CF90F9
:1014F0000C94910780916A0290916B0220910604EE
:1015000030910704821B930B90936B0280936A02C5
:1015100042E050E06CEB71E088EB93E0FF90EF90DD
:10152000DF90CF900C94E904FF90EF90DF90CF9084
:101530000895CF93DF93CEE8D2E01B821A8288EE23
:1015400093E0A0E0B0E08C839D83AE83BF838EEAFE
:1015500091E09983888385EC90E09D878C8784EC6B
:1015600090E09F878E8780EC90E0998B888B81EC50
:1015700090E09B8B8A8B82EC90E09D8B8C8B86EC31
:1015800090E09F8B8E8B198E1A8E1B8E1C8E84E69C
:1015900090E09093890280938802E8EBF3E0118257
:1015A0001082138212821582148242E050E06CEBAA
:1015B00071E0CF010E94E904EBE2F3E0108287E1E1
:1015C000818380E09BE4A0E0B0E082839383A483E6
:1015D000B5831682178210861186128613861486AA
:1015E0001586109276031092B3031092750383EE62
:1015F00098E09093E4038093E3031092E203109247
:10160000E103D093E003C093DF0382E090E0909386
:10161000B5038093B4030E94DD0660938A02709341
:101620008B0280938C0290938D02DF91CF9108956D
:10163000CF93DF93CDB7DEB760970FB6F894DEBFD8
:101640000FBECDBF789484B5826084BD84B58160BF
:1016500084BD85B5826085BD85B5816085BD80917D
:101660006E00816080936E001092810080918100F5
:1016700082608093810080918100816080938100ED
:10168000809180008160809380008091B1008460AF
:101690008093B1008091B00081608093B000809110
:1016A0007A00846080937A0080917A0082608093CF
:1016B0007A0080917A00816080937A0080917A002C
:1016C000806880937A001092C10061E08DE00E94F2
:1016D000670662E084E00E94670660E081E10E94A4
:1016E000670661E083E00E94670660E08DE00E948B
:1016F000370661E083E00E943706E0919E02F09198
:101700009F0282E08083E0919A02F0919B02108216
:10171000E0919C02F0919D0287E680831092A602E0
:10172000E091A202F091A30286E08083E091A00202
:10173000F091A102808180618083E091A002F0910C
:10174000A102808188608083E091A002F091A102D3
:10175000808180688083E091A002F091A102808165
:101760008F7D80838091B4039091B5038F3F910565
:1017700041F061E00E94670660E08091B4030E943E
:1017800037062091C0033091C1038091BE03909130
:10179000BF032817390731F480E290E09093BF032C
:1017A0008093BE038091BE039091BF039093C103C9
:1017B0008093C003813092400CF08CC180E092E0B5
:1017C00090930101809300010091C0031091C10327
:1017D000C80140969093C1038093C00320910001FB
:1017E00030910101281739074CF482EC91E00E94F6
:1017F000310166277727601B710B01C0B801709318
:1018000067026093660240E150E0CE0101960E94BB
:10181000700E6CEE71E0CE0101960E94F111892BE1
:1018200051F480E1FE013196A0E7B2E001900D9203
:101830008A95E1F70BC080E1EAE9F1E0A0E7B2E0C8
:1018400001900D928A95E1F70E9491070FEF13E046
:10185000FF24F3941092D7031092D3031092D40371
:101860001092D5031092D6030E94DD0660938A027F
:1018700070938B0280938C0290938D021092CF0311
:101880001092D0031092D1031092D2031092CB0386
:101890001092CC031092CD031092CE031092C70386
:1018A0001092C8031092C9031092CA031092C60383
:1018B0000E94C102019709F0FEC00E94DD066093FC
:1018C000C2037093C3038093C4039093C5038090B5
:1018D000C7039090C803A090C903B090CA03DC016D
:1018E000CB0188199909AA09BB0980907E02912C25
:1018F000A12CB12C88159905AA05BB0508F4C5C013
:101900000E94D60490936F0280936E0220917F0212
:10191000222339F09801281B390B30936F02209352
:101920006E0280916E0290916F020E943307709355
:101930006D0260936C022091D703222309F465C0E5
:1019400020917402309175026217730708F093C0FA
:101950000E94DD068090D3039090D403A090D5031D
:10196000B090D603DC01CB0188199909AA09BB09FB
:101970008093CF039093D003A093D103B093D2036D
:101980008090780290907902A12CB12C881699064B
:10199000AA06BB0608F50E94DD0660938A027093D2
:1019A0008B0280938C0290938D0280916A029091B9
:1019B0006B02019690936B0280936A028091680299
:1019C0009091690201969093690280936802109247
:1019D000D7031092C6034FC08091C6038F5F8093D8
:1019E000C60390917C02981708F045C01092C60378
:1019F0001092D7030E94DD0660938A0270938B02D7
:101A000080938C0290938D0236C0209176023091A3
:101A100077022617370778F50E94DD0680908A0244
:101A200090908B02A0908C02B0908D02DC01CB01D3
:101A300088199909AA09BB098093CB039093CC0319
:101A4000A093CD03B093CE0380907A0290907B0256
:101A5000A12CB12C88169906AA06BB0660F4F09258
:101A6000D7030E94DD066093D3037093D403809361
:101A7000D5039093D6030E94DD066093C70370934D
:101A8000C8038093C9039093CA038EE892E00E9432
:101A9000B205892B69F48091310390913203A091B2
:101AA0003303B0913403892B8A2B8B2B09F400CF9D
:101AB0000E94E502FDCE0E94C102892BE1F368EE8F
:101AC00073E080E090E00E94A3060E94BE070E949F
:101AD000BE05C0CE80EF91E00E94310175CE8091AD
:101AE000B8039091B9030C948110E89409C097FB56
:101AF0003EF490958095709561957F4F8F4F9F4FE5
:101B00009923A9F0F92F96E9BB279395F695879528
:101B100077956795B795F111F8CFFAF4BB0F11F4EB
:101B200060FF1BC06F5F7F4F8F4F9F4F16C0882392
:101B300011F096E911C0772321F09EE8872F762FC8
:101B400005C0662371F096E8862F70E060E02AF009
:101B50009A95660F771F881FDAF7880F96958795F5
:101B600097F908950E94C50D0C94360E0E94280E18
:101B700038F00E942F0E20F0952311F00C941F0EC8
:101B80000C94250E11240C946A0E0E94470E70F3DB
:101B9000959FC1F3950F50E0551F629FF001729F12
:101BA000BB27F00DB11D639FAA27F00DB11DAA1F21
:101BB000649F6627B00DA11D661F829F2227B00D6E
:101BC000A11D621F739FB00DA11D621F839FA00DF9
:101BD000611D221F749F3327A00D611D231F849F49
:101BE000600D211D822F762F6A2F11249F575040A0
:101BF0009AF0F1F088234AF0EE0FFF1FBB1F661F1B
:101C0000771F881F91505040A9F79E3F510580F0E3
:101C10000C941F0E0C946A0E5F3FE4F3983ED4F3CD
:101C2000869577956795B795F795E7959F5FC1F787
:101C3000FE2B880F911D9695879597F9089597F932
:101C40009F6780E870E060E008959FEF80EC089562
:101C500000240A941616170618060906089500248B
:101C60000A9412161306140605060895092E039405
:101C7000000C11F4882352F0BB0F40F4BF2B11F479
:101C800060FF04C06F5F7F4F8F4F9F4F089557FDD8
:101C90009058440F551F59F05F3F71F04795880FDA
:101CA00097FB991F61F09F3F79F087950895121671
:101CB00013061406551FF2CF4695F1DF08C016161D
:101CC00017061806991FF1CF8695710561050894CE
:101CD0000895E894BB2766277727CB0197F90895E5
:101CE000DC01CB01FC01F999FECF06C0F2BDE1BDDC
:101CF000F89A319600B40D9241505040B8F70895CB
:101D0000DC01CB0103C02D910E948B0E415050404D
:101D1000D0F70895262FF999FECF1FBA92BD81BD45
:101D200020BD0FB6F894FA9AF99A0FBE019608955D
:101D30000E94DA0EA59F900DB49F900DA49F800D78
:101D4000911D112408952F923F924F925F926F92AE
:101D50007F928F929F92AF92BF92CF92DF92EF923B
:101D6000FF920F931F93CF93DF93CDB7DEB7CA1BBC
:101D7000DB0B0FB6F894DEBF0FBECDBF09942A88E7
:101D8000398848885F846E847D848C849B84AA848F
:101D9000B984C884DF80EE80FD800C811B81AA811C
:101DA000B981CE0FD11D0FB6F894DEBF0FBECDBFE7
:101DB000ED010895A29FB001B39FC001A39F700DD4
:101DC000811D1124911DB29F700D811D1124911D43
:101DD00008950E94FD0E0C94360E0E942F0E58F0AE
:101DE0000E94280E40F029F45F3F29F00C941F0E4A
:101DF00051110C946A0E0C94250E0E94470E68F344
:101E00009923B1F3552391F3951B550BBB27AA27B3
:101E100062177307840738F09F5F5F4F220F331FED
:101E2000441FAA1FA9F335D00E2E3AF0E0E832D0B5
:101E300091505040E695001CCAF72BD0FE2F29D0B8
:101E4000660F771F881FBB1F261737074807AB078A
:101E5000B0E809F0BB0B802DBF01FF2793585F4FFF
:101E60003AF09E3F510578F00C941F0E0C946A0EC8
:101E70005F3FE4F3983ED4F3869577956795B795E1
:101E8000F7959F5FC9F7880F911D9695879597F9EC
:101E90000895E1E0660F771F881FBB1F6217730765
:101EA0008407BA0720F0621B730B840BBA0BEE1F7A
:101EB00088F7E09508950E94620F6894B1110C9420
:101EC0006A0E08950E944F0E88F09F5798F0B92F20
:101ED0009927B751B0F0E1F0660F771F881F991F5F
:101EE0001AF0BA95C9F714C0B13091F00E94690E8A
:101EF000B1E008950C94690E672F782F8827B85F9A
:101F000039F0B93FCCF3869577956795B395D9F7B6
:101F10003EF490958095709561957F4F8F4F9F4FC0
:101F20000895991B79E004C0991F961708F0961B35
:101F3000881F7A95C9F780950895052E97FB1EF4A2
:101F400000940E94B40F57FD07D00E94C40F07FCF5
:101F500003D04EF40C94B40F5095409530952195D4
:101F60003F4F4F4F5F4F08959095809570956195C5
:101F70007F4F8F4F9F4F0895B7FF0C94980E0E948C
:101F8000980E821B930B0895A1E21A2EAA1BBB1B6D
:101F9000FD010DC0AA1FBB1FEE1FFF1FA217B30735
:101FA000E407F50720F0A21BB30BE40BF50B661F4B
:101FB000771F881F991F1A9469F76095709580950F
:101FC00090959B01AC01BD01CF010895EE0FFF1F5D
:101FD0000590F491E02D0994CF93DF938230910521
:101FE00010F482E090E0E0915804F091590420E070
:101FF00030E0C0E0D0E0309711F1408151814817C6
:102000005907C0F04817590761F4828193812097DE
:1020100019F09B838A832BC09093590480935804B2
:1020200026C02115310519F04217530718F49A01FB
:10203000BE01DF01EF010280F381E02DDCCF21152D
:10204000310509F1281B390B2430310590F4129623
:102050008D919C9113976115710521F0FB0193837C
:10206000828304C09093590480935804FD013296F2
:1020700044C0FD01E20FF31F819391932250310977
:102080002D933C933AC02091560430915704232B52
:1020900041F4209196013091970130935704209399
:1020A000560420919401309195012115310541F498
:1020B0002DB73EB74091980150919901241B350BE3
:1020C000E0915604F0915704E217F307A0F42E1B99
:1020D0003F0B2817390778F0AC014E5F5F4F24178C
:1020E000350748F04E0F5F1F509357044093560436
:1020F0008193919302C0E0E0F0E0CF01DF91CF91B6
:1021000008950F931F93CF93DF93009709F48CC02A
:10211000FC013297138212820091580410915904E5
:102120000115110581F420813181820F931F2091C7
:102130005604309157042817390779F5F09357045E
:10214000E093560471C0D80140E050E0AE17BF07DD
:1021500050F412962D913C911397AD012115310544
:1021600009F1D901F3CF9D01DA0133832283608124
:102170007181860F971F8217930769F4EC012881FC
:102180003981260F371F2E5F3F4F318320838A818D
:102190009B8193838283452B29F4F0935904E09328
:1021A000580442C01396FC93EE931297ED014991A7
:1021B00059919E01240F351FE217F30771F48081B6
:1021C0009181840F951F029611969C938E93828124
:1021D000938113969C938E931297E0E0F0E0D801E0
:1021E00012968D919C911397009719F0F8018C012C
:1021F000F6CF8D919C9198012E5F3F4F820F931FD8
:1022000020915604309157042817390769F4309704
:1022100029F4109259041092580402C013821282B9
:102220001093570400935604DF91CF911F910F91A3
:102230000895A0E0B0E0EFE1F1E10C94A70EEC010D
:10224000009721F4CB010E94EC0FB8C0FC01E60F0F
:10225000F71F9C0122503109E217F30708F4ACC0C4
:10226000D9010D911C91119706171707B0F0053091
:10227000110508F49FC0C80104978617970708F452
:1022800099C002501109061B170B019311936D930E
:102290007C93CF010E9481108DC05B01A01AB10A0E
:1022A0004C01800E911EA0915804B091590440E059
:1022B00050E0E12CF12C109709F44AC0A815B9059B
:1022C000D1F56D907C901197630182E0C80ED11C0E
:1022D000CA14DB0480F1A3014A195B096A0182E098
:1022E000C80ED11C1296BC9012971396AC91B5E013
:1022F000CB16D10440F0B282A38351834083D9012D
:102300006D937C930AC00E5F1F4FC301800F911F16
:10231000F90191838083EB2DFA2FE114F10431F060
:10232000D7011396FC93EE93129744C0F09359048F
:10233000E09358043FC08D919C911197481759071D
:1023400008F4AC017D0112960D90BC91A02DB3CF85
:10235000809156049091570488159905E1F4461729
:102360005707C8F48091940190919501009741F42A
:102370008DB79EB74091980150919901841B950BA0
:10238000E817F907C8F4F0935704E0935604F901ED
:10239000718360830FC0CB010E94EC0F7C0100971A
:1023A00059F0A801BE010E94E811CE010E948110DF
:1023B000C70104C0CE0102C080E090E0CDB7DEB717
:1023C000EEE00C94C30E81E090E0F8940C940112BE
:1023D000FB01DC0102C001900D9241505040D8F742
:1023E0000895FB01DC018D91019080190110D9F352
:1023F000990B0895FB01DC0101900D920020E1F79B
:10240000089510E0C2E6D0E004C0FE010E94E60F8D
:0C2410002196C336D107C9F7F894FFCF1E
:10241C0000027B226964223A2230302D30302D307C
:10242C0032222C226C6162656C223A2257617373E2
:10243C0065727A6165686C6572222C2264657363BF
:10244C0072697074696F6E223A2257617373657288
:10245C007A6165686C6572222C2276657273696F7D
:10246C006E223A2256302E32222C22617574686FFD
:10247C0072223A224D617274696E20506C616173E4
:10248C00222C22656D61696C223A226D617274692D
:10249C006E2E706C61617340676D61696C2E636F39
:1024AC006D227D0000005A0480006C733100900195
:1024BC00580232009001FF46050100000000C800E0
:1024CC008D0081050F01B2059005A4054F4B000D41
:1024DC000A00417474656D707420746F2077726992
:1024EC007465206F757473696465206F662045454B
:1024FC0050524F4D206D656D6F7279006C733100C9
:10250C0043616E6E6F74206368616E6765206365EE
:10251C00696C696E672C2062656C6F7720697373C8
:10252C0075656420616464726573736573004578C6
:10253C00636565646564206D6178696D756D206E89
:10254C00756D626572206F662077726974657300B1
:10255C0043414C494252415445004552524F52203E
:10256C002D2054494D454F55543A202773656E64C0
:06257C00446174612700B8
:00000001FF
